:020000040000FA
:020000002028B6
:040002000034003492
:08000800A100030EA200040890
:10001000A3000A08A4008A0183010B1D17280B11F5
:1000200000308100A50B17288030A500201424087B
:100030008A0023088400220E8300A10E210E0900ED
:1000400083160030860000308700FF30880094302F
:10005000810083128B178B160030810020108030B6
:10006000A50086018701081C3A20881C4320081D32
:100070006A20332870200608F73E03194C20060832
:10008000013E8600080070200608003E0319562035
:100090000608FF3E86000800003086000708F73E8D
:1000A000031960200708013E8700332809308600C5
:1000B0000708003E031965200708FF3E8700332824
:1000C00000308600FF3087000800093086000A30C3
:1000D000870008007020003086000030870008008C
:0800E000201C7028201008000C
:02400E00393F38
:00000001FF
